:1000000012C02CC02BC02AC029C028C053C126C092
:1000100025C024C023C09BC121C020C01FC01EC05A
:100020001DC01CC01BC011241FBECFE5D4E0DEBF25
:10003000CDBF10E0A0E6B0E0EAE0F0E102C005903C
:100040000D92A63EB107D9F721E0A6EEB0E001C0BF
:100050001D92AE33B207E1F707D3B1C7D1CFA22FBC
:10006000B32F11B89CE090B994E996BF94EA96BF7B
:1000700006B607FEFDCF91B1987F983079F583B928
:1000800084E886BF06B607FEFDCF81B1887F883140
:1000900049F563B984E886BF06B607FEFDCF81B196
:1000A000887F883219F54423A9F0FD019D012F5F57
:1000B0003F4F4150240F311D94E8819183B996BF81
:1000C00006B607FEFDCF81B1887F883299F4E2172A
:1000D000F30799F784E986BF81E0089584E986BF34
:1000E00080E0089584E986BF80E0089584E986BFB2
:1000F00080E0089584E986BF80E008958830A0F408
:10010000E82FF0E0EF51F84F0994C09808959198C6
:1001100008959298089593980895949808959598BD
:10012000089596980895979808958830A0F4E82F38
:10013000F0E0E751F84F0994C09A0895919A089514
:10014000929A0895939A0895949A0895959A089585
:10015000969A0895979A089590E0FC01EE0FFF1F7C
:10016000EC50FF4F0190F081E02D3097B9F02081E5
:100170002223A1F021502083880F991FFC01EC500D
:10018000FF4F0190F081E02D80816281BBD581819C
:10019000E0916700F0916800890F099508958091BA
:1001A000E900811108956FEF7FEFAFD281E0809376
:1001B000E900F8CF1F93CF93DF93262FC82FD0E00D
:1001C000FE01EE0FFF1FEC50FF4F0190F081E02D7C
:1001D000309781F1442391F18081628193D58181AF
:1001E000192F180F8785622F681B8585681724F0E3
:1001F000868568170CF4862FE82FEE0FFF0BE45965
:10020000FF4F6081718162957295707F7627607F64
:100210007627812F7AD2E0916900F0916A00812FD0
:100220000995CC0FDD1FCC50DF4FE881F98180812B
:100230008F5F8083DF91CF911F9108958DDFFACF7B
:10024000E0916700F091680080E00995E091670017
:10025000F091680081E00995E0916700F0916800F5
:1002600082E00995E0916700F091680083E00995CC
:10027000E0916700F091680084E00995E0916700E3
:10028000F091680085E00995E0916700F0916800C1
:1002900087E00995E0916700F091680086E0099594
:1002A0002FEF89E698E1215080409040E1F700C0AF
:1002B000000008951F920F920FB60F9211240F9312
:1002C0001F932F933F934F935F936F937F938F93DE
:1002D0009F93AF93BF93CF93EF93FF931EBC88B7C9
:1002E000806188BF0CEE10E0C0E003C0CF5FC83073
:1002F00079F0F80181918F018823C1F3E0916700C3
:10030000F09168008C2F0995F80131971082EECF9B
:100310008091E800811114C0FF91EF91CF91BF91BE
:10032000AF919F918F917F916F915F914F913F918D
:100330002F911F910F910F900FBE0F901F90189546
:1003400070E060E081E0E1D11092E800E5CF1F921B
:100350000F920FB60F9211242F933F934F935F93F9
:100360006F937F938F939F93AF93BF93EF93FF937D
:100370008CB107D2FF91EF91BF91AF919F918F9177
:100380007F916F915F914F913F912F910F900FBE91
:100390000F901F901895813011F0A0980895A09AA1
:1003A00008958FE084BBB89A81B38E6F81BB82B30E
:1003B000817082BBC09881E0EEDF2FEF85EA9EE07E
:1003C000215080409040E1F700C0000080E0E3DF72
:1003D000E199FECF87E090E0EAD58A3A79F187E4A7
:1003E00085BD8DE983BD80E98AB986E080BD10BCFA
:1003F0008FE189B9E199FECFE199FECFE199FECF76
:100400008CE085BB84B38C6084BB65D12FEF81EE1B
:1004100094E0215080409040E1F700C00000B19B83
:100420000FC08EE790E090936A008093690085E9A1
:1004300090E090936800809367000895A198CFCFD3
:1004400085E990E090936A00809369008EE790E0E0
:10045000909368008093670008951DBC1CBC1FBC6E
:1004600095E09EBD90E09BBD8ABD88B7806188BF46
:1004700089B7806189BF08958091E900882309F4D4
:1004800046C02091EB008BEA289F812D1124869590
:100490008695982F990F890F880F28132BC0E0910C
:1004A0006900F0916A0080E0099581E08093EC009A
:1004B00021E09091EA008BEA989F812D112482958A
:1004C0008F7038E1839F90191124911115C0E0912C
:1004D0006900F0916A0081E0099581E08093ED0068
:1004E0008091EB008F5F8093EB00883188F484E289
:1004F000B4DF0DC020E0DDCF8091EB008F5F8093F3
:10050000EB00883110F01092EB002111F0CF08952C
:1005100021E0F9CF8091E900811108956FEF7FEF1D
:10052000F4D01092EB0081E08093E90084E295DF43
:10053000F4CF8091E900811101C0089570E060E07E
:1005400080E0E3D01092E9006FEF7FEF81E0DDD033
:1005500081E08093E80084E280DFEFCFDF92EF92CA
:10056000FF920F931F93CF93DF93C62F142FD22E9A
:100570006623B1F0D0916B004D2F460F5527551FC4
:10058000493051056CF4803158F4E82EF12CF70114
:10059000EE0FFF1FEC50FF4F80819181892B41F0BE
:1005A000DF91CF911F910F91FF90EF90DF90089511
:1005B00060E170E081E090E0B1D3A82FB92FF7019E
:1005C000EE0FFF1FEC50FF4FB183A083109741F354
:1005D0001196DC931197DC0FD0936B001296CC939D
:1005E00012971F960C931F971D961C931D971E968E
:1005F000DC92D6CF0F931F9310E000E02CE330E0A5
:1006000050E040E062E070E090E080E0A7DF2CE3A3
:1006100030E050E040E062E070E081E090E09EDF9A
:100620002CE330E050E040E062E070E082E090E0F7
:1006300095DF6CE372E080E08CD06AE872E082E0E3
:1006400088D069E972E084E084D06FEC70E083E0E8
:1006500080D06AED70E089E07CD06CEA70E088E0E0
:1006600078D01F910F9108959CDEEADD65D0C2DF3E
:100670007894C2E013E0D4E008C080E08CDE02C0D1
:10068000823059F008B607FC0BC0809166008430B8
:10069000A1F38330A9F7C093660081E07CDEF2CF3E
:1006A00014BC88B7806888BF83B382709091E700DC
:1006B000891719F08093E700E8CF9091E600891739
:1006C00021F3811105C0D09366008093E600DDCF51
:1006D00010936600FACFCF93DF9300D0CDB7DEB78B
:1006E0001A8219829E012F5F3F4F42E065E280E24D
:1006F000B6DC9E012F5F3F4F42E062EC80E2AFDC50
:100700000F900F90DF91CF910895CF93DF9300D09A
:10071000CDB7DEB77983607F6A83682F6F70606BB7
:100720009E012F5F3F4F42E080E299DC0F900F90D7
:10073000DF91CF9108950895E4E1F1E022E331E003
:100740008BE993E081939193E217F307D9F780E067
:100750000895E82F862F972F009749F0F0E0EE0FCD
:10076000FF1FEC5EFE4F9183808380E00895F0E0F0
:10077000EE0FFF1FEC5EFE4F8BE993E091838083C9
:10078000F4CF982F987F983F91F0982F907F903FCB
:1007900009F4B6C288230CF433C1E0913901E25068
:1007A000EC3008F0A5C2F0E0EF50F84F0994885FF4
:1007B000883008F0A3C2E82FF0E0E350F84F099426
:1007C0008091320190913301A0913401B0913501B3
:1007D0000196A11DB11D8093320190933301A09326
:1007E0003401B0933501E0911401F091150140916D
:1007F00036016091370180913801099510923701D7
:100800001092360181E00895809132019091330178
:10081000A0913401B09135010196A11DB11D8093C5
:10082000320190933301A0933401B0933501E091EC
:100830001601F091170140913601609137018091C6
:1008400038010995109237011092360181E0089520
:100850008091320190913301A0913401B091350122
:100860000196A11DB11D8093320190933301A09395
:100870003401B0933501E0911801F09119014091D4
:100880003601609137018091380109951092370146
:100890001092360181E008958091320190913301E8
:1008A000A0913401B09135010196A11DB11D809335
:1008B000320190933301A0933401B0933501E0915C
:1008C0001A01F0911B01409136016091370180912E
:1008D00038010995109237011092360181E0089590
:1008E0008091320190913301A0913401B091350192
:1008F0000196A11DB11D8093320190933301A09305
:100900003401B0933501E0911C01F0911D0140913B
:1009100036016091370180913801099510923701B5
:100920001092360181E00895809132019091330157
:10093000A0913401B09135010196A11DB11D8093A4
:10094000320190933301A0933401B0933501E091CB
:100950001E01F0911F014091360160913701809195
:1009600038010995109237011092360181E00895FF
:100970008091320190913301A0913401B091350101
:100980000196A11DB11D8093320190933301A09374
:100990003401B0933501E0912001F09121014091A3
:1009A0003601609137018091380109951092370125
:1009B0001092360181E008958091320190913301C7
:1009C000A0913401B09135010196A11DB11D809314
:1009D000320190933301A0933401B0933501E0913B
:1009E0002201F091230140913601609137018091FD
:1009F00038010995109237011092360181E008956F
:100A00008F7080933801903B31F180F49039F1F090
:100A1000903A29F486E08093390180E00895903877
:100A200021F582E08093390180E00895903DC1F086
:100A3000903E29F48CE08093390180E00895903C49
:100A4000A1F48AE08093390180E0089584E08093E6
:100A5000390180E0089588E08093390180E00895AD
:100A60008BE08093390180E0089581E08093390123
:100A70008EEF08958093370183E08093390180E001
:100A80000895809336014091320150913301609175
:100A90003401709135014F5F5F4F6F4F7F4F40932F
:100AA0003201509333016093340170933501E0912A
:100AB0002401F0912501482F609137018091380180
:100AC0000995109237011092360182E08093390126
:100AD00081E008958093370185E08093390180E0BB
:100AE0000895809336014091320150913301609115
:100AF0003401709135014F5F5F4F6F4F7F4F4093CF
:100B00003201509333016093340170933501E091C9
:100B10002601F0912701482F60913701809138011B
:100B20000995109237011092360184E080933901C3
:100B300081E008958093370187E08093390180E058
:100B400008958093360140913201509133016091B4
:100B50003401709135014F5F5F4F6F4F7F4F40936E
:100B60003201509333016093340170933501E09169
:100B70002801F0912901482F6091370180913801B7
:100B80000995109237011092360186E08093390161
:100B900081E008958093370189E08093390180E0F6
:100BA0000895809336014091320150913301609154
:100BB0003401709135014F5F5F4F6F4F7F4F40930E
:100BC0003201509333016093340170933501E09109
:100BD0002A01F0912B01482F609137018091380153
:100BE0000995109237011092360188E080933901FF
:100BF00081E00895809337011092360140913201CF
:100C00005091330160913401709135014F5F5F4F16
:100C10006F4F7F4F40933201509333016093340103
:100C200070933501E0912C01F0912D0140E0682F87
:100C3000809138010995109237011092360181E0B8
:100C400008958093370110923601409132015091FE
:100C5000330160913401709135014F5F5F4F6F4FE9
:100C60007F4F40933201509333016093340170936E
:100C70003501E0912E01F0912F0140E0682F809125
:100C800038010995109237011092360181E00895DC
:100C9000809337018DE08093390180E0089580933F
:100CA00036014091320150913301609134017091CD
:100CB00035014F5F5F4F6F4F7F4F4093320150932D
:100CC00033016093340170933501E0913001F0916C
:100CD0003101482F609137018091380109951092B8
:100CE0003701109236018CE08093390181E008953C
:100CF000109237011092360180E0089581E0089546
:100D000080E00895991B79E004C0991F961708F0B8
:100D1000961B881F7A95C9F7809508950F931F93A6
:100D2000CF93DF93869F8001879F100D969F100DB4
:100D30001124C8010DD0EC01009721F0A80170E04A
:100D400060E02ED1CE01DF91CF911F910F910895D8
:100D50000F931F93CF93DF939C01029710F422E02F
:100D600030E0E0913C01F0913D0190E080E0B0E0A6
:100D7000A0E0309791F4009709F445C0821B930BD3
:100D800084309105B8F58A819B816115710569F1FF
:100D9000FB0193838283FE0111C040815181028156
:100DA000138142175307F0F04217530799F4109735
:100DB00061F012960C93129713961C933296CF0102
:100DC000DF91CF911F910F91089500933C011093F3
:100DD0003D01F4CF009719F04817590718F4CA01DC
:100DE000BD01EF01DF01F801C4CF90933D01809375
:100DF0003C01D1CFFE01E80FF91F219331930297F7
:100E000099838883DCCF80913A0190913B01892BB3
:100E100041F4809162009091630090933B01809334
:100E20003A018091600090916100009741F48DB784
:100E30009EB74091640050916500841B950B4091D2
:100E40003A0150913B014817590708F0B8CF841B6D
:100E5000950B8217930708F4B2CFB9016E5F7F4FED
:100E60008617970708F4ABCF640F751F70933B018B
:100E700060933A01FA0121933193A1CFCF93DF938D
:100E80009C010097E9F0FC01329713821282C09115
:100E90003C01D0913D01DE0190E080E02097A1F47B
:100EA00080819181280F391F80913A0190913B01F7
:100EB0008217930709F067C0F0933B01E0933A0172
:100EC000DF91CF910895DA01AE17BF0708F041C056
:100ED00012964D915C911397CD014115510599F7EB
:100EE000DC011396FC93EE9312974D915D91A40F44
:100EF000B51FEA17FB0781F4208131812E5F3F4F38
:100F0000240F351FDC0111963C932E9322813381EF
:100F100013963C932E931297B0E0A0E08A819B81B8
:100F20000097B1F5FE0181919191E80FF91F809131
:100F30003A0190913B018E179F0711F6109759F5D2
:100F400010923D0110923C01D0933B01C0933A01B5
:100F5000B7CFB383A28340815181240F351FA217DD
:100F6000B30771F44E5F5F4F2D913C911197420F83
:100F7000531F5183408312962D913C9133832283DA
:100F8000009709F0ADCFF0933D01E0933C0198CF7D
:100F9000DE01EC01C3CF13961C921E921297D4CFA0
:100FA000DC0101C06D9341505040E0F70895E19994
:100FB000FECF9FBB8EBBE09A99278DB30895F8941E
:100FC000FFCFA3C8A4C8A5C8A6C8A7C8A8C8A9C851
:100FD000AAC8B2C8B3C8B4C8B5C8B6C8B7C8B8C834
:100FE000B9C848CD4ECD76CD7CCDA4CDAACDD2CD3D
:100FF000D8CD00CE26CE4CCE52CEE2CB05CC28CCDE
:0A1000004BCC6ECC91CCB4CCD7CC15
:10100A0000003E0120000195007E0002000044001D
:10101A008900CD00100154019901DD012102650208
:10102A00A902ED0231037503BA03FE0341048504E4
:10103A00CA040E0552059605DA051E066306A706BA
:10104A00EB062F077307B707FB0740088408C80891
:10105A000C0950099409D8091C0A600AA50AE80A69
:10106A002D0B710BB50BF90B3D0C810CC50C0A0D40
:10107A004E0D910DD60D1A0E5E0EA20EE60E2A0F19
:06108A006F0FB30FF60F1B
:00000001FF
