:100000001AC034C033C032C031C030C02FC02EC07F
:100010002DC02CC02BC020C129C028C027C026C09D
:1000200025C024C023C003C207C20BC20FC213C223
:1000300017C21BC21FC211241FBECFE5D4E0DEBF12
:10004000CDBF11E0A0E6B0E0E4E7F7E002C0059024
:100050000D92A237B107D9F721E0A2E7B1E001C0C4
:100060001D92AF37B207E1F76ED282C3C9CFF90153
:1000700011B89CE090B994E996BF94EA96BF06B691
:1000800007FEFDCF91B1987F983021F084E986BFBB
:1000900080E0089583B994E896BF06B607FEFDCFC9
:1000A00091B1987F983121F084E986BF80E008956E
:1000B00063B994E896BF06B607FEFDCF91B1987F6D
:1000C000983221F084E986BF80E0089594EE96BFCF
:1000D00006B607FEFDCF91B1987F903121F084E9FB
:1000E00086BF80E00895816083B984E886BF06B644
:1000F00007FEFDCF81B1887F803441F4642F70E02A
:1001000061507109161617062CF023C084E986BFCA
:1001100080E0089580E090E040E054EC56BF06B6E1
:1001200007FEFDCF31B1387F303521F084E986BF3D
:1001300080E0089523B1DF01A80FB91F2C9384E15B
:1001400000008150E9F74F5F842F90E086179707F2
:100150002CF384E886BF06B607FEFDCF83B1E60F19
:10016000F71F808384E986BF81E0089511B89CE081
:1001700090B994E996BF94EA96BF06B607FEFDCF04
:1001800091B1987F983021F084E986BF80E008958E
:1001900083B984E886BF06B607FEFDCF81B1887FAC
:1001A000883121F084E986BF80E0089563B984E84E
:1001B00086BF06B607FEFDCF81B1887F883219F46D
:1001C000411105C01DC084E986BF80E00895F90192
:1001D0004150842F90E00196280F391F94E88191B7
:1001E00083B996BF06B607FEFDCF81B1887F8832FE
:1001F00021F084E986BF80E00895E217F30779F7DC
:1002000084E986BF81E0089589E08093610088E0F9
:10021000E2E6F0E0AAE6B0E001900D928A95E1F7FF
:10022000E199FECF69E080E091E095D2E199FECFBF
:1002300048E050E061E071E08AE690E083D2089502
:100240006F77E62FF0E0EE0FFF1FEE58FF4F608153
:1002500071818F7049D208951F920F920FB60F923D
:1002600011242F933F934F935F936F937F938F93BB
:100270009F93AF93BF93CF93DF93EF93FF938CB193
:10028000882304F5982F987F983F11F010927A01F7
:10029000982F907E903841F480937C0191E0909368
:1002A0007B0192E090937A01982F907F903B09F028
:1002B00004C180937C0181E080937B0182E0809384
:1002C0007A01FBC090917A01992309F4F6C09091CC
:1002D0007B01E92FF0E0E458FE4F80839F5F93306D
:1002E00019F090937B01E9C081E080937B018091BC
:1002F0007901882309F4C8C0E0917801E83008F05A
:10030000DCC080917C01982F907F903909F0D5C096
:100310008F7090916100891709F4B1C0E11128C074
:100320008093610080917E01882309F4C6C0BEC01D
:10033000AE2FB0E0A659BF4F80917D018C93E111A3
:1003400002C0C0980BC022B381E090E002C0880FC9
:10035000991FEA95E2F78095822382BB809178010C
:100360008F5F80937801883018F0109279018CC0EB
:1003700080917C01282F2F709091610029139DC0DE
:1003800090917901911199C0982F907E9038D9F56C
:1003900020917D0190916A0029137FC08079803976
:1003A00031F480917E01882311F0C09876C0C09A04
:1003B00074C0482F219111963C91119732131FC0A0
:1003C0002C912079203991F412962C9112972223A6
:1003D00069F032B3EB01082E02C0CC0FDD1F0A9486
:1003E000E2F72C2F2095232322BB09C052B39B0197
:1003F00002C0220F331F4A95E2F7252B22BB01963C
:1004000088309105B1F680917C01807F803B09F0B6
:1004100054C0E0917D018E2F90E0FC01E554F1097C
:10042000E830F10508F049C0ED5EFF4F0994609196
:100430007E0180E005DF41C060917E0181E000DF48
:100440003CC060917E0182E0FBDE37C060917E019E
:1004500083E0F6DE32C060917E0184E0F1DE2DC0E3
:1004600060917E0185E0ECDE28C060917E0186E02F
:10047000E7DE23C060917E0187E0E2DE1EC080914E
:100480007E01811155CF19C080917C01282F2F70DA
:1004900090916100291311C077CFEBE6F0E081E085
:1004A00090E0ACE7B1E061E070E083CFF0E0E659C6
:1004B000FF4F80917D01808344CFFF91EF91DF91C9
:1004C000CF91BF91AF919F918F917F916F915F91EC
:1004D0004F913F912F910F900FBE0F901F90189545
:1004E000813011F4A09A0895A098089581E0809336
:1004F000790110927801C09A82B38E6F82BB80918D
:100500007801883038F481E0EBDF000080917801D9
:100510008830C8F380E0E4DFE199FECF60916100AC
:1005200080E091E018D1E199FECF48E050E061E031
:1005300071E08AE690E006D1C09A82B38E6F82BBEA
:1005400080E0CEDF08958FE084BB81E087BB8EEF33
:1005500081BB82B38E6F82BBC09A81E0C1DF2FEF77
:1005600085EA9EE0215080409040E1F700C0000005
:1005700080E0B6DF87E485BD8DE983BD80E98AB977
:1005800086E080BD10BC82E089B9E199FECF80E0B1
:1005900091E0D0D080936100E199FECF48E050E037
:1005A00061E071E08AE690E0B5D0E199FECF8091FC
:1005B0006A008F3F09F428DE8CE085BB84B38C6031
:1005C00084BB7FD08093770162D061D01092790193
:1005D0007894C2E0D1E003E014E0809160008430C0
:1005E00039F410927601109275011092740123C0B3
:1005F000833069F4C093600080917401811109C057
:100600001092760110927501D093740106C0823069
:1006100091F480917401813071F480917501909111
:100620007601883C910538F061DF109276011092D6
:1006300075011092740108B607FECFCF14BC88B7BD
:10064000806888BF83B3827090917301891719F015
:10065000809373010DC090917201891749F0811147
:1006600003C01093600002C0009360008093720189
:1006700080917401813009F0B0CF80917501909123
:10068000760101969093760180937501A6CFCF9362
:10069000DF9300D0CDB7DEB71A8219829E012F5F9B
:1006A0003F4F42E065E280E261DD9E012F5F3F4FF8
:1006B00042E062EC80E25ADD0F900F90DF91CF9123
:1006C0000895CF93DF9300D0CDB7DEB71A82198299
:1006D0009E012F5F3F4F42E060E080E2C8DC0F9058
:1006E0000F90DF91CF910895CF93DF9300D0CDB7D6
:1006F000DEB77983607F6A838F70682F606B9E019D
:100700002F5F3F4F42E080E231DD0F900F90DF918D
:10071000CF910895DC01CB01FC01E199FECF06C029
:10072000FFBBEEBBE09A31960DB20D9241505040A6
:10073000B8F70895E199FECF9FBB8EBBE09A992749
:100740008DB30895DC01CB0102C02D9105D041503D
:100750005040D8F70895262FE199FECF9FBB8EBB5E
:100760002DBB0FB6F894E29AE19A0FBE0196089558
:04077000F894FFCF2B
:1007740001093C3D3E3F404142433C3D3E3F4041F8
:10078400424300000002000410061008100A100C76
:10079400200E20102012201430163018301A301C6D
:1007A400401E40204022402450265028502A502CDD
:1007B400602E60306032603470367038703A703C4D
:1007C400803E80408042804490469048904A904CBD
:1007D400A04EA050A052A054A056B058B05AB05C3D
:1007E400B05EC060C062C064C066D068D06AD06CBD
:1007F400D06EE070E072E074E076F078F07AF07C2D
:10080400F07E00810083008500871089108B108D95
:10081400108F20912093209520973099309B309D04
:10082400309F40A140A340A540A750A950AB50AD74
:1008340050AF50B160B360B560B760B970BB70BD04
:1008440070BF70C180C380C580C780C990CB90CD74
:1008540090CF90D1A0D3A0D5A0D7A0D9B0DBB0DDE4
:10086400B0DFB0E1C0E3C0E5C0E7C0E9D0EBD0ED54
:10087400D0EFD0F1E0F3E0F5E0F7E0F9F0FBF0FDC4
:02088400F0FE84
:00000001FF
