S01500005472616D385F313667617465732E7372656369
S113000022C03CC03BC03AC039C038C037C036C03B
S113001035C034C033C062C131C030C02FC02EC01F
S11300202DC02CC02BC000C101C102C103C104C139
S113003005C106C107C110C111C112C113C114C148
S113004015C116C117C111241FBECFE5D4E0DEBF10
S1130050CDBF11E0A0E6B0E0E6EAFAE002C0059008
S11300600D92A838B107D9F721E0A8E8B1E001C0A2
S11300701D92A839B207E1F793D313C5C1CFF90193
S113008011B893E090B994E996BF94EA96BF06B686
S113009007FEFDCF91B1987F983021F084E986BFA7
S11300A080E0089583B994E896BF06B607FEFDCFB5
S11300B091B1987F983121F084E986BF80E008955A
S11300C063B994E896BF06B607FEFDCF91B1987F59
S11300D0983221F084E986BF80E0089594EE96BFBB
S11300E006B607FEFDCF91B1987F903121F084E9E7
S11300F086BF80E00895816083B984E886BF06B630
S113010007FEFDCF81B1887F803441F4642F70E015
S113011061507109161617062CF023C084E986BFB6
S113012080E0089580E090E040E054EC56BF06B6CD
S113013007FEFDCF31B1387F303521F084E986BF29
S113014080E0089523B1DF01A80FB91F2C9384E147
S113015000008150E9F74F5F842F90E086179707DE
S11301602CF384E886BF06B607FEFDCF83B1E60F05
S1130170F71F808384E986BF81E0089511B893E076
S113018090B994E996BF94EA96BF06B607FEFDCFF0
S113019091B1987F983021F084E986BF80E008957A
S11301A083B984E886BF06B607FEFDCF81B1887F98
S11301B0883121F084E986BF80E0089563B984E83A
S11301C086BF06B607FEFDCF81B1887F883219F459
S11301D0411105C01DC084E986BF80E00895F9017E
S11301E04150842F90E00196280F391F94E88191A3
S11301F083B996BF06B607FEFDCF81B1887F8832EA
S113020021F084E986BF80E00895E217F30779F7C7
S113021084E986BF81E0089590E08830910598F4E0
S1130220FC01ED5EFF4F0994C098089591980895DC
S11302309298089593980895949808959598089598
S1130240969808959798089590E08830910598F4C9
S1130250FC01E55EFF4F0994C09A0895919A0895B0
S1130260929A0895939A0895949A0895959A089560
S1130270969A0895979A089589E08093670081E09B
S11302808093660080E1E8E6F0E0A8E7B0E0019042
S11302900D928A95E1F7E199FECF69E080E091E063
S11302A0F3D3E199FECF40E150E061E071E088E7EB
S11302B090E0E1D3E199FECF6091660082E191E0A4
S11302C0E3D308956F77E62FF0E0EE0FFF1FE857B2
S11302D0FF4F608171818F70A0D308951F920F9298
S11302E00FB60F921124EF92FF920F931F932F9347
S11302F03F934F935F936F937F938F939F93AF93AA
S1130300BF93CF93EF93FF938CB1882304F5982F79
S1130310987F983F11F010929301982F907E903817
S113032041F48093950191E09093940192E090932D
S11303309301982F907F903B09F0DFC08093950143
S113034081E08093940182E080939301D6C09091E0
S11303509301992309F4D1C090919401E92FF0E01D
S1130360EB56FE4F80839F5F933019F09093940176
S1130370C4C081E08093940180919201882309F4A0
S1130380B3C080919101803108F0B7C0909195017C
S1130390292F207F203909F0B0C09F702091670079
S11303A0921709F49CC08111A8C09093670097C06C
S11303B0E82FF0E0E858FF4F909196019083E09188
S11303C06400F091650087700995809191018F5FB9
S11303D080939101893051F5E0916200F0916300BE
S11303E081E00995E0916200F091630082E0099553
S11303F0E0916200F091630083E00995E09162006E
S1130400F091630084E00995E0916200F09163004B
S113041085E00995E0916200F091630086E009951A
S1130420E0916200F091630087E009958091950165
S1130430282F2F709091670029135FC0909192012B
S113044091115BC0807E803809F057C008E710E046
S1130450C0E00F2EF5E9EF2EF1E0FF2EF02DF801AC
S113046081918F01F7019181981314C08081807963
S1130470803951F48281882339F0E0916400F0914D
S113048065008C2F099506C0E0916200F09163002D
S11304908C2F0995CF5FC83011F700E810E00F2EBC
S11304A0F5E9EF2EF1E0FF2EF02DF80181918F0197
S11304B0F701918198130FC080818079803939F4D4
S11304C06281662321F08C2F8770FCDE04C060E01B
S11304D08C2F8770F7DECF5FC03139F70EC0909153
S11304E09701992351F064CF80919501282F2F70A3
S11304F090916700291709F4A5CFFF91EF91CF914F
S1130500BF91AF919F918F917F916F915F914F9127
S11305103F912F911F910F91FF90EF900F900FBE7D
S11305200F901F901895813011F4A09A08958111AD
S113053002C0A0980895823021F494B381E0892701
S113054084BB0895CF92DF92EF92FF920F931F9393
S1130550CF93DF9381E08093920110929101E09117
S11305606200F091630080E00995E0916200F091EF
S1130570630081E00995E0916200F091630082E0FC
S11305800995E0916200F091630083E00995E091A0
S11305906200F091630084E00995E0916200F091BB
S11305A0630085E00995E0916200F091630086E0C4
S11305B00995E0916200F091630087E0099581E07C
S11305C0B2DF01E0D1E06894CC24C3F86894FF243E
S11305D0F1F811E00F2EF3E0DF2EF02D6894EE24F5
S11305E0E2F877C0809160008430A1F410928F010A
S11305F010928E0110928D01109360000111BAC007
S113060080916600813019F4F0926600B3C01093B3
S11306106600B0C0833069F4F092600080918D016F
S113062081110BC010928F0110928E0110938D01D5
S113063008C080916000823099F480918D018130EE
S113064079F480918E0190918F01883C910540F05E
S113065010928F0110928E0110928D01C09291011F
S113066008B607FE36C014BC88B7806888BFC3B319
S1130670C270C0938A01DF5F8D2F8F7049F480911F
S11306806600813019F4812F4EDF02C08F2D4BDFBD
S113069080918901C81719F0C09389010DC0809118
S11306A08801C81749F0C11103C0E092600002C07C
S11306B0D0926000C093880180918D01813049F40B
S11306C080918E0190918F01019690938F01809378
S11306D08E0180919101803108F484CF10929201AF
S11306E080E021DFE199FECF6091670080E091E036
S11306F0CBD1E199FECF6091660082E191E0C4D153
S1130700E199FECF40E150E061E071E088E790E0DC
S1130710B2D1E0916200F091630080E00995E0912C
S11307206200F091630081E00995E0916200F0912C
S1130730630082E00995E0916200F091630083E038
S11307400995E0916200F091630084E00995E091DD
S11307506200F091630085E00995E0916200F091F8
S1130760630086E00995E0916200F091630087E000
S1130770099502C000E074CFDF91CF911F910F91D2
S1130780FF90EF90DF90CF90089580EF9EEF9093CD
S11307908701809386011092890010928800089541
S11307A08FE084BB81E087BB8EEF81BB82B38E6F09
S11307B082BBC09A81E0B7DE2FEF85EA9EE021502C
S11307C080409040E1F700C00000DFDF80E0ABDE56
S11307D0E199FECF87E090E046D18A3A09F4A198E6
S11307E087E485BD8DE983BD80E98AB986E080BD53
S11307F010BC8FE189B9E199FECF80E091E033D15B
S113080080936700E199FECF40E150E061E071E040
S113081088E790E018D1E199FECF82E191E023D1FD
S113082080936600E199FECF809178008F3F09F4B0
S113083023DD8CE085BB84B38C6084BBDBD08093E8
S11308409001BED0BDD0C19AB9982FEF81EE94E04B
S1130850215080409040E1F700C00000B19B0DC0E2
S11308608CE091E0909365008093640084E291E0D1
S113087090936300809362000CC084E291E09093B3
S11308806500809364008CE091E090936300809312
S11308906200E0916200F091630080E00995E091CC
S11308A06200F091630081E00995E0916200F091AB
S11308B0630082E00995E0916200F091630083E0B7
S11308C00995E0916200F091630084E00995E0915C
S11308D06200F091630085E00995E0916200F09177
S11308E0630086E00995E0916200F091630087E07F
S11308F00995109292017894C1E0D2E003E014E0EB
S113090080916100843049F410928F0110928E011D
S113091010928D01C093610027C0833069F4D09395
S1130920610080918D0181110BC010928F01109292
S11309308E01C0938D0108C0809161008230A1F4C2
S113094080918D01813081F480918E0190918F018D
S1130950883C910548F010928F0110928E011092FC
S11309608D01C0936100EEDD08B607FEC9CF14BC4B
S113097088B7806888BF83B3827090918C0189178F
S113098019F080938C010DC090918B01891749F067
S1130990811103C01093610002C000936100809331
S11309A08B0180918D01813009F0AACF80918E0155
S11309B090918F01019690938F0180938E01A0CF27
S11309C0CF93DF9300D0CDB7DEB71A8219829E0190
S11309D02F5F3F4F42E067E280E2D0DB9E012F5F52
S11309E03F4F42E062EC80E2C9DB0F900F90DF9151
S11309F0CF910895CF93DF9300D0CDB7DEB71A829D
S1130A0019829E012F5F3F4F42E060E080E237DBB6
S1130A100F900F90DF91CF910895CF93DF9300D083
S1130A20CDB7DEB77983607F6A838F70682F606B80
S1130A309E012F5F3F4F42E080E2A0DB0F900F90BA
S1130A40DF91CF910895DC01CB01FC01E199FECF48
S1130A5006C0FFBBEEBBE09A31960DB20D92415039
S1130A605040B8F70895E199FECF9FBB8EBBE09A42
S1130A7099278DB30895DC01CB0102C02D9105D0D7
S1130A8041505040D8F70895262FE199FECF9FBBDF
S1130A908EBB2DBB0FB6F894E29AE19A0FBE019675
S1090AA00895F894FFCF55
S1130AA6010124010C0101093C3D3E3F4041424302
S1130AB64445464748494A4B3C3D3E3F40414243F4
S1130AC64445464748494A4B0000000200041006C4
S1130AD61008100A100C200E2010201220143016B4
S1130AE63018301A301C401E402040224024502624
S1130AF65028502A502C602E603060326034703694
S1130B067038703A703C803E804080428044904603
S1130B169048904A904CA04EA050A052A054A05683
S1130B26B058B05AB05CB05EC060C062C064C06603
S1130B36D068D06AD06CD06EE070E072E074E07673
S1130B46F078F07AF07CF07E0081008300850087DF
S1130B561089108B108D108F20912093209520974B
S1130B663099309B309D309F40A140A340A540A7BB
S1130B7650A950AB50AD50AF50B160B360B560B73B
S1130B8660B970BB70BD70BF70C180C380C580C7BB
S1130B9680C990CB90CD90CF90D1A0D3A0D5A0D72B
S1130BA6A0D9B0DBB0DDB0DFB0E1C0E3C0E5C0E79B
S1130BB6C0E9D0EBD0EDD0EFD0F1E0F3E0F5E0F70B
S10B0BC6E0F9F0FBF0FDF0FE84
S9030000FC
