S01400005472616D385F52616E646F6D2E7372656384
S113000012C02CC02BC02AC029C028C043C126C09E
S113001025C024C023C0C2C321C020C01FC01EC02D
S11300201DC01CC01BC011241FBECFE5D4E0DEBF21
S1130030CDBF10E0A0E6B0E0E4E7FBE002C005902D
S11300400D92AC37B107D9F720E0ACE7B0E001C0BE
S11300501D92AC39B207E1F773D16FC5D1CFE22F4E
S1130060F32F11B89CE090B994E996BF94EA96BF37
S113007006B607FEFDCF91B1987F983009F059C0BC
S113008083B994E896BF06B607FEFDCF91B1987F79
S1130090983109F052C063B994E896BF06B607FEDA
S11300A0FDCF91B1987F983209F04BC094EE96BF82
S11300B006B607FEFDCF91B1987F903109F045C097
S11300C0816083B984E886BF06B607FEFDCF81B19F
S11300D0887F803409F03DC04150550B30E090E0FA
S11300E080E064EC14161506BCF466BF06B607FE81
S11300F0FDCF21B1287F203581F523B18E0F9F1FBD
S1130100DC012C9384E100008150E9F73F5F832FE9
S113011090E0841795074CF384E886BF06B607FE83
S1130120FDCF83B1E40FF51F808384E986BF81E0AE
S1130130089584E986BF80E0089584E986BF80E05D
S1130140089584E986BF80E0089584E986BF80E04D
S1130150089584E986BF80E0089584E986BF80E03D
S11301600895A22FB32F11B89CE090B994E996BFDB
S113017094EA96BF06B607FEFDCF91B1987F9830FA
S113018079F583B984E886BF06B607FEFDCF81B151
S1130190887F883149F563B984E886BF06B607FECF
S11301A0FDCF81B1887F883219F54423A9F0FD0180
S11301B09D012F5F3F4F4150240F311D94E88191E1
S11301C083B996BF06B607FEFDCF81B1887F88321A
S11301D099F4E217F30799F784E986BF81E008955B
S11301E084E986BF80E0089584E986BF80E00895AD
S11301F084E986BF80E0089584E986BF80E008959D
S11302008830A0F4E82FF0E0E156FA4F0994C09842
S113021008959198089592980895939808959498BC
S11302200895959808959698089597980895883014
S1130230A0F4E82FF0E0E955FA4F0994C09A089524
S1130240919A0895929A0895939A0895949A089584
S1130250959A0895969A0895979A089589E08093B7
S11302606A0088E0EBE6F0E0A3E7B0E001900D92CD
S11302708A95E1F7E199FECF69E080E091E0F6D359
S1130280E199FECF48E050E061E071E083E790E05F
S1130290E4D308951F920F920FB60F9211242F9357
S11302A03F934F935F936F937F938F939F93AF93FA
S11302B0BF93EF93FF931EBC88B7806188BFE09122
S11302C06600F091670081E00995E0916600F09185
S11302D0670082E00995E0916600F091670083E091
S11302E00995E0916600F091670084E00995E0913A
S11302F06600F091670085E00995E0916600F09151
S1130300670087E00995E0916600F091670086E058
S11303100995FF91EF91BF91AF919F918F917F913B
S11303206F915F914F913F912F910F900FBE0F905E
S11303301F901895813011F0A0980895A09A0895FF
S1130340CDB7DEB767970FB6F894DEBF0FBECDBF4B
S11303508FE084BB81E087BB8EEF81BB82B38E6F5D
S113036082BBC09A81E0E6DF2FEF45EA8EE02150A0
S113037040408040E1F700C0000080E0DBDFE1990D
S1130380FECF87E090E061D38A3A09F4A8C087E4FD
S113039085BD8DE983BD80E98AB986E080BD10BC46
S11303A08FE189B9E199FECF80E091E04ED380934B
S11303B06A00E199FECF48E050E061E071E083E734
S11303C090E033D3E199FECF809173008F3F09F41D
S11303D088C08CE085BB84B38C6084BB99D2809345
S11303E085007CD27BD2C19AB9989FEFA1EEB4E08C
S11303F09150A040B040E1F700C00000B19B73C031
S113040080E091E0909369008093680087E191E037
S11304109093670080936600E0916600F091670016
S113042081E00995E0916600F091670082E009950A
S1130430E0916600F091670083E00995E091660021
S1130440F091670084E00995E0916600F0916700FF
S113045085E00995E0916600F091670087E00995D1
S1130460E0916600F091670086E00995EFEFF9E608
S113047028E1E150F0402040E1F700C0000087E1AE
S1130480FE013196DF011D928A95E9F781E88B839D
S113049082E88E8383E8898784E88C8785E88F8760
S11304A086E88A8B87EA8D8B1092860078940F2ECB
S11304B0FBEA9F2EF02D07E810E00F2EEE24EA94BD
S11304C0FFE0FF2EF02D0F2EAA24AA94FFE3BF2EE7
S11304D0F02D882483946894772471F898C0A198A7
S11304E056CFBCDE76CF87E191E09093690080938C
S11304F0680080E091E090936700809366008CCF61
S113050080926500E0917E00EF5FE0937E00EA3028
S113051008F4F3C010927E0079D29A83898369C06B
S1130520306E309384002093830094C099230CF0A0
S1130530A8C01092820010928100A3C0D801169620
S11305408D919C9117979B878A8718968D919C9182
S11305509E878D875BD29C01359527953595279588
S11305608430904494F530938400209383008091E8
S11305707F00909180002091830030918400820F4D
S1130580931F9093800080937F008115E0E49E0781
S113059014F1B0928000A0927F0080917F0090912E
S11305A08000880F991F880F991F80938300909370
S11305B08400D82EC12C96012227307F892F9927B9
S11305C0822B932B998B888B88C0306E3093840058
S11305D020938300CCCF992304F7109280001092CB
S11305E07F00DBCF80916400823009F082C01092DA
S11305F0650080916400843009F49BC0833009F461
S11306009BC0823009F49AC008B607FC9AC02091B6
S11306109B00299D812D112486958695982F990FED
S1130620890F880F281B253009F46ACF21116ACF5E
S1130630809165008823E9F2E9D19C0135952795DD
S113064035952795843090440CF06ACF309384001C
S113065020938300809181009091820020918300F7
S113066030918400820F931F9093820080938100C5
S11306708115E0E49E070CF459CFB0928200A09259
S113068081008091810090918200880F991F880FCA
S1130690991F382F22272227307F892F9927822BD1
S11306A0932B98878F8340919A00842F8F708E9D0F
S11306B090018F9D300D112430938400209383008A
S11306C0922F88278827907F232F3327822B932BE1
S11306D09F8B8E8B437009F431CF80919A008F7079
S11306E009F080CFD8011C968D919C919C8B8B8BAB
S11306F079CFCE0101961FD17ACFEB3008F079CFB4
S1130700F0E0E155FA4F099481D19D838C8371CF38
S11307107DD1F801978386836CCF78D1D80119965F
S11307209C938E93189765CF71D1F8019587848730
S113073060CF80E0FFDD68CF70926400882DFADD21
S113074063CF14BC88B7806888BF83B382709091EC
S11307507D00891719F080937D0059CF90917C001A
S1130760891709F454CF811106C094E09093640072
S113077080937C004CCF93E090936400F9CF1DBC30
S11307801CBC1FBC95E09EBD90E09BBD8ABD88B794
S1130790806188BF89B7806189BF08951F920F92D5
S11307A00FB60F9211242F933F934F935F936F9340
S11307B07F938F939F93AF93BF93CF93EF93FF93C5
S11307C0CCB1CC236CF4CA3FE9F0CC3F09F076C03D
S11307D010929900E0916600F091670080E009951D
S11307E0FF91EF91CF91BF91AF919F918F917F91A5
S11307F06F915F914F913F912F910F900FBE0F908A
S11308001F90189581E08093990010929B0010929C
S11308109A001092980010929700E0916800F0916D
S1130820690080E00995809199008130C9F6C83F3C
S1130830B9F6E0916800F0916900099520919B0058
S11308408BEA289F812D112486958695982F990FE0
S1130850890F880F281312C0E0916800F091690095
S113086082E00995E0916800F091690083E00995C0
S1130870E0916800F091690084E0099520919B0063
S11308808BEA289F812D1124869586958695982F2D
S1130890990F890F880F880F281306C0E09168000C
S11308A0F091690085E0099580919B008F5F883104
S11308B090F480939B008EE462DF92CFCB3F09F0EB
S11308C0B2CF81E080939900E0916800F0916900D3
S11308D080E0099585CF10929B00EDCFCF93DF93F5
S11308E000D0CDB7DEB71A8219829E012F5F3F4F29
S11308F042E065E280E235DC9E012F5F3F4F42E03B
S113090062EC80E22EDC0F900F90DF91CF9108957E
S1130910CF93DF9300D0CDB7DEB71A8219829E0140
S11309202F5F3F4F42E060E080E299DB0F900F9031
S1130930DF91CF910895282F392F47E160E880E2B5
S113094010DC0895CF92DF92EF92FF92CF93DF9362
S1130950CDB7DEB72A970FB6F894DEBF0FBECDBF72
S113096089879A87A985BA852D913D914D915C918E
S113097029833A834B835C83232B242B252B41F43B
S113098024E239ED4BE557E029833A834B835C83BA
S113099069817A818B819C812DE133EF41E050E0C4
S11309A072D069017A01A7EAB1E49B01AC0187D056
S11309B069837A838B839C83ACEEB4EFA7019601A1
S11309C08AD09B01AC0189819A81AB81BC81820F61
S11309D0931FA41FB51FB7FF03C00197A109B04817
S11309E0E985FA8580839183A283B3839F772A96CE
S11309F00FB6F894DEBF0FBECDBFDF91CF91FF904D
S1130A00EF90DF90CF9008959DDF089580E690E009
S1130A1099DF0895B0E0A0E08093600090936100B6
S1130A20A0936200B09363000895DC01CB01FC0144
S1130A30E199FECF06C0FFBBEEBBE09A31960DB242
S1130A400D9241505040B8F70895E199FECF9FBBF5
S1130A508EBBE09A99278DB30895DC01CB0102C0C7
S1130A602D9105D041505040D8F70895262FE19993
S1130A70FECF9FBB8EBB2DBB0FB6F894E29AE19AD2
S1130A800FBE01960895052E97FB16F400940FD01F
S1130A9057FD05D024D007FC02D046F408C0509579
S1130AA04095309521953F4F4F4F5F4F0895909556
S1130AB08095709561957F4F8F4F9F4F089531D0EA
S1130AC0A59F900DB49F900DA49F800D911D11249E
S1130AD00895B7FFF4CFF3DF821B930B0895A1E2CF
S1130AE01A2EAA1BBB1BFD010DC0AA1FBB1FEE1FA4
S1130AF0FF1FA217B307E407F50720F0A21BB30BEF
S1130B00E40BF50B661F771F881F991F1A9469F76A
S1130B1060957095809590959B01AC01BD01CF01C6
S1130B200895A29FB001B39FC001A39F01D0B29FBB
S1130B30700D811D1124911D0895F894FFCF67CB8A
S1130B4068CB69CB6ACB6BCB6CCB6DCB6ECB76CBE6
S1130B5077CB78CB79CB7ACB7BCB7CCB7DCBDCCC06
S1130B60D3CD47CDD5CDD9CD44CDDECDD5CCCCCD8F
S1070B70D3CCCACD47
S1130B7401000000010117010001093C3D3E3F4012
S10F0B844142433C3D3E3F40414243009F
S9030000FC
