S01000005472616D385F43432E7372656363
S11300002AC044C043C042C041C040C03FC03EC0FB
S11300103DC03CC03BC06AC139C038C037C036C0DF
S113002035C034C033C008C109C10AC10BC10CC1F9
S11300300DC10EC10FC118C119C11AC11BC11CC108
S11300401DC11EC11FC122C226C22AC22EC232C273
S113005036C23AC23EC211241FBECFE5D4E0DEBF91
S1130060CDBF11E0A0E6B0E0EEE8FAE002C00590F2
S11300700D92A837B107D9F721E0A8E7B1E001C094
S11300801D92A838B207E1F780D3FFC4B9CFF901B4
S113009011B89CE090B994E996BF94EA96BF06B66D
S11300A007FEFDCF91B1987F983021F084E986BF97
S11300B080E0089583B994E896BF06B607FEFDCFA5
S11300C091B1987F983121F084E986BF80E008954A
S11300D063B994E896BF06B607FEFDCF91B1987F49
S11300E0983221F084E986BF80E0089594EE96BFAB
S11300F006B607FEFDCF91B1987F903121F084E9D7
S113010086BF80E00895816083B984E886BF06B61F
S113011007FEFDCF81B1887F803441F4642F70E005
S113012061507109161617062CF023C084E986BFA6
S113013080E0089580E090E040E054EC56BF06B6BD
S113014007FEFDCF31B1387F303521F084E986BF19
S113015080E0089523B1DF01A80FB91F2C9384E137
S113016000008150E9F74F5F842F90E086179707CE
S11301702CF384E886BF06B607FEFDCF83B1E60FF5
S1130180F71F808384E986BF81E0089511B89CE05D
S113019090B994E996BF94EA96BF06B607FEFDCFE0
S11301A091B1987F983021F084E986BF80E008956A
S11301B083B984E886BF06B607FEFDCF81B1887F88
S11301C0883121F084E986BF80E0089563B984E82A
S11301D086BF06B607FEFDCF81B1887F883219F449
S11301E0411105C01DC084E986BF80E00895F9016E
S11301F04150842F90E00196280F391F94E8819193
S113020083B996BF06B607FEFDCF81B1887F8832D9
S113021021F084E986BF80E00895E217F30779F7B7
S113022084E986BF81E0089590E08830910598F4D0
S1130230FC01ED5EFF4F0994C098089591980895CC
S11302409298089593980895949808959598089588
S1130250969808959798089590E08830910598F4B9
S1130260FC01E55EFF4F0994C09A0895919A0895A0
S1130270929A0895939A0895949A0895959A089550
S1130280969A0895979A089589E08093670081E08B
S11302908093660088E0E8E6F0E0A0E7B0E0019033
S11302A00D928A95E1F7E199FECF69E080E091E053
S11302B0DFD3E199FECF48E050E061E071E080E7F0
S11302C090E0CDD3E199FECF6091660080E191E0AA
S11302D0CFD308956F77E62FF0E0EE0FFF1FE858B5
S11302E0FF4F608171818F708CD308951F920F929C
S11302F00FB60F921124EF92FF920F931F932F9337
S11303003F934F935F936F937F938F939F93AF9399
S1130310BF93CF93DF93EF93FF938CB1882304F5BE
S1130320982F987F983F11F010928301982F907E18
S1130330903841F48093850191E09093840192E098
S113034090938301982F907F903B09F0D5C08093C0
S1130350850181E08093840182E080938301CCC095
S113036090918301992309F4C7C090918401E92FE6
S1130370F0E0EB57FE4F80839F5F933019F090932A
S11303808401BAC081E08093840180918201882332
S113039009F4A9C080918101883008F0ADC0909122
S11303A08501292F207F203909F0A6C09F70209154
S11303B06700921709F492C081119EC09093670060
S11303C08DC0E82FF0E0E059FF4FC5E8D1E09981F6
S11303D09083E0916400F09165000995809181011A
S11303E08F5F809381018881282F2F7090916700FF
S11303F0291382C09091820191117EC0807E803841
S113040069F500E710E0C0E00F2EF5E8EF2EF1E00B
S1130410FF2EF02DF80181918F01F701918198133E
S11304201AC080818079803981F46281662369F001
S113043080916600813011F48C2F4CDFE0916400D0
S1130440F09165008C2F099506C0E0916200F0914F
S113045063008C2F0995CF5FC830E1F68091850148
S1130460807F803B09F048C080916600823009F0AB
S113047043C0E09186018E2F90E0FC01E554F10920
S1130480E830F105C8F5ED5DFF4F099460918701EF
S113049080E020DF31C06091870181E01BDF2CC048
S11304A06091870182E016DF27C06091870183E0B5
S11304B011DF22C06091870184E00CDF1DC06091D0
S11304C0870185E007DF18C06091870186E002DFBD
S11304D013C06091870187E0FDDE0EC09091870113
S11304E0992351F06ECF80918501282F2F70909120
S11304F06700291709F482CFFF91EF91DF91CF9123
S1130500BF91AF919F918F917F916F915F914F9127
S11305103F912F911F910F91FF90EF900F900FBE7D
S11305200F901F901895813011F4A09A08958111AD
S113053002C0A0980895823021F494B381E0892701
S113054084BB0895CF92DF92EF92FF920F931F9393
S1130550CF93DF9381E08093820110928101E09137
S11305606200F091630080E00995E0916200F091EF
S1130570630081E00995E0916200F091630082E0FC
S11305800995E0916200F091630083E00995E091A0
S11305906200F091630084E00995E0916200F091BB
S11305A0630085E00995E0916200F091630086E0C4
S11305B00995E0916200F091630087E0099581E07C
S11305C0B2DF01E0D1E06894CC24C3F86894FF243E
S11305D0F1F811E00F2EF3E0DF2EF02D6894EE24F5
S11305E0E2F877C0809160008430A1F410927F011A
S11305F010927E0110927D01109360000111BAC027
S113060080916600813019F4F0926600B3C01093B3
S11306106600B0C0833069F4F092600080917D017F
S113062081110BC010927F0110927E0110937D0105
S113063008C080916000823099F480917D018130FE
S113064079F480917E0190917F01883C910540F07E
S113065010927F0110927E0110927D01C09281015F
S113066008B607FE36C014BC88B7806888BFC3B319
S1130670C270C0937A01DF5F8D2F8F7049F480912F
S11306806600813019F4812F4EDF02C08F2D4BDFBD
S113069080917901C81719F0C09379010DC0809138
S11306A07801C81749F0C11103C0E092600002C08C
S11306B0D0926000C093780180917D01813049F42B
S11306C080917E0190917F01019690937F018093A8
S11306D07E0180918101883008F484CF10928201D8
S11306E080E021DFE199FECF6091670080E091E036
S11306F0BFD1E199FECF6091660080E191E0B8D16D
S1130700E199FECF48E050E061E071E080E790E0DD
S1130710A6D1E0916200F091630080E00995E09138
S11307206200F091630081E00995E0916200F0912C
S1130730630082E00995E0916200F091630083E038
S11307400995E0916200F091630084E00995E091DD
S11307506200F091630085E00995E0916200F091F8
S1130760630086E00995E0916200F091630087E000
S1130770099502C000E074CFDF91CF911F910F91D2
S1130780FF90EF90DF90CF9008958FE084BB81E0DD
S113079087BB8EEF81BB82B38E6F82BBC09A81E030
S11307A0C2DE2FEF85EA9EE0215080409040E1F7C1
S11307B000C0000080E0B7DEE199FECF87E090E062
S11307C046D18A3A09F4A19887E485BD8DE983BDB1
S11307D080E98AB986E080BD10BC8FE189B9E199CE
S11307E0FECF80E091E033D180936700E199FECFA2
S11307F048E050E061E071E080E790E018D1E199D1
S1130800FECF80E191E023D180936600E199FECF91
S1130810809170008F3F09F437DD8CE085BB84B391
S11308208C6084BBDBD080938001BED0BDD0C19AE4
S1130830B9982FEF81EE94E0215080409040E1F789
S113084000C00000B19B0DC084E191E0909365006D
S1130850809364008CE291E0909363008093620043
S11308600CC08CE291E0909365008093640084E175
S113087091E09093630080936200E0916200F091B4
S1130880630080E00995E0916200F091630081E0EB
S11308900995E0916200F091630082E00995E0918E
S11308A06200F091630083E00995E0916200F091A9
S11308B0630084E00995E0916200F091630085E0B3
S11308C00995E0916200F091630086E00995E0915A
S11308D06200F091630087E0099510928201789498
S11308E0C1E0D2E003E014E080916100843049F477
S11308F010927F0110927E0110927D01C0936100DD
S113090027C0833069F4D093610080917D01811107
S11309100BC010927F0110927E01C0937D0108C02C
S1130920809161008230A1F480917D01813081F455
S113093080917E0190917F01883C910548F010924E
S11309407F0110927E0110927D01C0936100FADD57
S113095008B607FEC9CF14BC88B7806888BF83B3C4
S1130960827090917C01891719F080937C010DC0ED
S113097090917B01891749F0811103C010936100A4
S113098002C00093610080937B0180917D018130DE
S113099009F0AACF80917E0190917F0101969093F6
S11309A07F0180937E01A0CFCF93DF9300D0CDB79A
S11309B0DEB71A8219829E012F5F3F4F42E065E243
S11309C080E2E4DB9E012F5F3F4F42E062EC80E275
S11309D0DDDB0F900F90DF91CF910895CF93DF93DC
S11309E000D0CDB7DEB71A8219829E012F5F3F4F28
S11309F042E060E080E24BDB0F900F90DF91CF91FB
S1130A000895CF93DF9300D0CDB7DEB77983607FAD
S1130A106A838F70682F606B9E012F5F3F4F42E0A7
S1130A2080E2B4DB0F900F90DF91CF910895DC0149
S1130A30CB01FC01E199FECF06C0FFBBEEBBE09AFF
S1130A4031960DB20D9241505040B8F70895E19996
S1130A50FECF9FBB8EBBE09A99278DB30895DC012E
S1130A60CB0102C02D9105D041505040D8F70895D4
S1130A70262FE199FECF9FBB8EBB2DBB0FB6F894FA
S1110A80E29AE19A0FBE01960895F894FFCF12
S1130A8E01012C01140101093C3D3E3F404142430A
S1130A9E3C3D3E3F4041424300000002000410062C
S1130AAE1008100A100C200E2010201220143016DC
S1130ABE3018301A301C401E40204022402450264C
S1130ACE5028502A502C602E6030603260347036BC
S1130ADE7038703A703C803E80408042804490462C
S1130AEE9048904A904CA04EA050A052A054A056AC
S1130AFEB058B05AB05CB05EC060C062C064C0662C
S1130B0ED068D06AD06CD06EE070E072E074E0769B
S1130B1EF078F07AF07CF07E008100830085008707
S1130B2E1089108B108D108F209120932095209773
S1130B3E3099309B309D309F40A140A340A540A7E3
S1130B4E50A950AB50AD50AF50B160B360B560B763
S1130B5E60B970BB70BD70BF70C180C380C580C7E3
S1130B6E80C990CB90CD90CF90D1A0D3A0D5A0D753
S1130B7EA0D9B0DBB0DDB0DFB0E1C0E3C0E5C0E7C3
S1130B8EC0E9D0EBD0EDD0EFD0F1E0F3E0F5E0F733
S10B0B9EE0F9F0FBF0FDF0FEAC
S9030000FC
