:1000000012C02CC02BC02AC029C028C072C126C073
:1000100025C024C023C099C121C020C01FC01EC05C
:100020001DC01CC01BC011241FBECFE5D4E0DEBF25
:10003000CDBF10E0A0E6B0E0E8EEFBE002C0059026
:100040000D92AE3DB107D9F721E0AEEDB0E001C0B1
:100050001D92A031B207E1F74BD2A0C5D1CFA22F9C
:10006000B32F11B89CE090B994E996BF94EA96BF7B
:1000700006B607FEFDCF91B1987F983079F583B928
:1000800084E886BF06B607FEFDCF81B1887F883140
:1000900049F563B984E886BF06B607FEFDCF81B196
:1000A000887F883219F54423A9F0FD019D012F5F57
:1000B0003F4F4150240F311D94E8819183B996BF81
:1000C00006B607FEFDCF81B1887F883299F4E2172A
:1000D000F30799F784E986BF81E0089584E986BF34
:1000E00080E0089584E986BF80E0089584E986BFB2
:1000F00080E0089584E986BF80E008958830A0F408
:10010000E82FF0E0E053FA4F0994C09808959198D1
:1001100008959298089593980895949808959598BD
:10012000089596980895979808958830A0F4E82F38
:10013000F0E0E852FA4F0994C09A0895919A089510
:10014000929A0895939A0895949A0895959A089585
:10015000969A0895979A08958F709091E700981352
:1001600029C08091E600882329F13FEF380F3093B2
:10017000E600E0EEF0E090E080E02191261789F0C3
:10018000019686309105C9F78BEA389F812D11249D
:1001900086958695982F990F890F880F381B832F86
:1001A00003C08F3F980781F3E0916100F0916200F6
:1001B0008E5F099508958091E800811108956FEF91
:1001C0007FEFE7D11092E90081E08093E800F6CF5D
:1001D0008091E800811108956FEF7FEFDAD181E01F
:1001E0008093E800F8CF8091E800811101C0089564
:1001F00070E060E080E0CDD11092E800F8CFCF93BE
:10020000982F9F702091E700291337C04423E9F00D
:100210002091E6008BEA289F812D112486958695F2
:10022000982F990F890F880F281BE22FF0E0E052DA
:10023000FF4F6083C2E0C20F80916500681738F0FD
:10024000681B6C3328F06BE303C086DF16C060E0E8
:10025000E62FF0E0EE0FFF1FEA59FF4F608171813A
:100260008C2F97D1E0916300F09164008C2F099559
:100270008091E6008F5F8093E600CF910895E09132
:100280006100F091620080E00995E0916100F091D9
:10029000620081E00995E0916100F091620082E0E6
:1002A0000995E0916100F091620083E00995E09189
:1002B0006100F091620084E00995E0916100F091A5
:1002C000620085E00995E0916100F091620087E0AD
:1002D0000995E0916100F091620086E009952FEFA9
:1002E00089E698E1215080409040E1F700C000008D
:1002F00008951F920F920FB60F9211242F933F93E0
:100300004F935F936F937F938F939F93AF93BF931D
:10031000EF93FF931EBC88B7806188BFE0916100B6
:10032000F091620080E00995FF91EF91BF91AF914C
:100330009F918F917F916F915F914F913F912F91FD
:100340000F900FBE0F901F9018951F920F920FB62F
:100350000F9211242F933F934F935F936F937F934B
:100360008F939F93AF93BF93EF93FF938CB14DD136
:10037000FF91EF91BF91AF919F918F917F916F917D
:100380005F914F913F912F910F900FBE0F901F9053
:100390001895813011F0A0980895A09A08958FE0E3
:1003A00084BBB89A81B38E6F81BB82B3817082BBEC
:1003B000C09881E0EEDF2FEF85EA9EE0215080407B
:1003C0009040E1F700C0000080E0E3DFE199FECF5C
:1003D00087E090E0DBD38A3A79F187E485BD8DE947
:1003E00083BD80E98AB986E080BD10BC8FE189B900
:1003F000E199FECFE199FECFE199FECF8CE085BB7C
:1004000084B38C6084BBABD02FEF81EE94E021509D
:1004100080409040E1F700C00000B19B0FC08EE724
:1004200090E0909364008093630085E990E090935E
:100430006200809361000895A198CFCF85E990E094
:1004400090936400809363008EE790E09093620045
:100450008093610008951DBC1CBC1FBC95E09EBD2F
:1004600090E09BBD8ABD88B7806188BF89B78061F5
:1004700089BF08958091E8008823B1F02091E900B8
:100480008BEA289F812D112486958695982F990FA8
:10049000890F880F281308C0E0916300F091640071
:1004A00080E009958EE4D7DF8091E9008F5F883185
:1004B00018F48093E90008951092E90008956AE322
:1004C00072E080E08AD06BED70E082E086D063EF6E
:1004D00070E084E082D068EE70E083E07ED06FEF61
:1004E00070E089E07AD06CEA70E088E076D0089518
:1004F00056DFC5DE65D0E3DF7894C2E013E0D4E0D8
:1005000008C080E046DF02C0823059F008B607FC20
:100510000BC0809160008430A1F38330A9F7C093B1
:10052000600081E036DFF2CF14BC88B7806888BFF6
:1005300083B382709091DF00891719F08093DF00F8
:10054000E8CF9091DE00891721F3811105C0D09387
:1005500060008093DE00DDCF10936000FACFCF9370
:10056000DF9300D0CDB7DEB71A8219829E012F5FCC
:100570003F4F42E065E280E272DD9E012F5F3F4F18
:1005800042E062EC80E26BDD0F900F90DF91CF9143
:100590000895CF93DF9300D0CDB7DEB77983607F26
:1005A0006A83682F6F70606B9E012F5F3F4F42E040
:1005B00080E255DD0F900F90DF91CF91089508955F
:1005C000EAEEF0E028E031E08FED92E08193919344
:1005D000E217F307D9F780E00895E82F862F972FC9
:1005E000009749F0F0E0EE0FFF1FE651FF4F9183B7
:1005F000808380E00895F0E0EE0FFF1FE651FF4F8B
:100600008FED92E091838083F4CF982F987F983F6D
:1006100091F0982F907F903F09F4B6C288230CF494
:1006200033C1E0910F01E250EC3008F0A5C2F0E0D8
:10063000E052FA4F0994885F883008F0A3C2E82F8F
:10064000F0E0E451FA4F099480910801909109017A
:10065000A0910A01B0910B010196A11DB11D8093DB
:10066000080190930901A0930A01B0930B01E09156
:10067000EA00F091EB0040910C0160910D01809136
:100680000E01099510920D0110920C0181E0089560
:100690008091080190910901A0910A01B0910B018C
:1006A0000196A11DB11D8093080190930901A093AB
:1006B0000A01B0930B01E091EC00F091ED00409144
:1006C0000C0160910D0180910E01099510920D01B0
:1006D00010920C0181E00895809108019091090128
:1006E000A0910A01B0910B010196A11DB11D80934B
:1006F000080190930901A0930A01B0930B01E091C6
:10070000EE00F091EF0040910C0160910D0180919D
:100710000E01099510920D0110920C0181E00895CF
:100720008091080190910901A0910A01B0910B01FB
:100730000196A11DB11D8093080190930901A0931A
:100740000A01B0930B01E091F000F091F1004091AB
:100750000C0160910D0180910E01099510920D011F
:1007600010920C0181E00895809108019091090197
:10077000A0910A01B0910B010196A11DB11D8093BA
:10078000080190930901A0930A01B0930B01E09135
:10079000F200F091F30040910C0160910D01809105
:1007A0000E01099510920D0110920C0181E008953F
:1007B0008091080190910901A0910A01B0910B016B
:1007C0000196A11DB11D8093080190930901A0938A
:1007D0000A01B0930B01E091F400F091F500409113
:1007E0000C0160910D0180910E01099510920D018F
:1007F00010920C0181E00895809108019091090107
:10080000A0910A01B0910B010196A11DB11D809329
:10081000080190930901A0930A01B0930B01E091A4
:10082000F600F091F70040910C0160910D0180916C
:100830000E01099510920D0110920C0181E00895AE
:100840008091080190910901A0910A01B0910B01DA
:100850000196A11DB11D8093080190930901A093F9
:100860000A01B0930B01E091F800F091F90040917A
:100870000C0160910D0180910E01099510920D01FE
:1008800010920C0181E008958F7080930E01903BCF
:1008900031F180F49039F1F0903A29F486E08093B8
:1008A0000F0180E00895903821F582E080930F01D8
:1008B00080E00895903DC1F0903E29F48CE0809353
:1008C0000F0180E00895903CA1F48AE080930F012D
:1008D00080E0089584E080930F0180E0089588E02F
:1008E00080930F0180E008958BE080930F0180E0FA
:1008F000089581E080930F018EEF089580930D019C
:1009000083E080930F0180E0089580930C01409173
:1009100008015091090160910A0170910B014F5F2C
:100920005F4F6F4F7F4F40930801509309016093D1
:100930000A0170930B01E091FA00F091FB00482F3F
:1009400060910D0180910E01099510920D01109298
:100950000C0182E080930F0181E0089580930D01E6
:1009600085E080930F0180E0089580930C01409111
:1009700008015091090160910A0170910B014F5FCC
:100980005F4F6F4F7F4F4093080150930901609371
:100990000A0170930B01E091FC00F091FD00482FDB
:1009A00060910D0180910E01099510920D01109238
:1009B0000C0184E080930F0181E0089580930D0184
:1009C00087E080930F0180E0089580930C014091AF
:1009D00008015091090160910A0170910B014F5F6C
:1009E0005F4F6F4F7F4F4093080150930901609311
:1009F0000A0170930B01E091FE00F091FF00482F77
:100A000060910D0180910E01099510920D011092D7
:100A10000C0186E080930F0181E0089580930D0121
:100A200089E080930F0180E0089580930C0140914C
:100A300008015091090160910A0170910B014F5F0B
:100A40005F4F6F4F7F4F40930801509309016093B0
:100A50000A0170930B01E0910001F0910101482F10
:100A600060910D0180910E01099510920D01109277
:100A70000C0188E080930F0181E0089580930D01BF
:100A800010920C01409108015091090160910A01F6
:100A900070910B014F5F5F4F6F4F7F4F4093080185
:100AA0005093090160930A0170930B01E0910201D8
:100AB000F091030140E0682F80910E01099510929A
:100AC0000D0110920C0181E0089580930D011092A8
:100AD0000C01409108015091090160910A01709147
:100AE0000B014F5F5F4F6F4F7F4F40930801509353
:100AF000090160930A0170930B01E0910401F091E8
:100B0000050140E0682F80910E01099510920D01BA
:100B100010920C0181E0089580930D018DE0809387
:100B20000F0180E0089580930C01409108015091DD
:100B3000090160910A0170910B014F5F5F4F6F4F88
:100B40007F4F409308015093090160930A0170930D
:100B50000B01E0910601F0910701482F60910D0112
:100B600080910E01099510920D0110920C018CE0FC
:100B700080930F0181E0089510920D0110920C01F5
:100B800080E0089581E0089580E00895E199FECF26
:100B90009FBB8EBBE09A99278DB30895F894FFCF41
:100BA000B4CAB5CAB6CAB7CAB8CAB9CABACABBCA39
:100BB000C3CAC4CAC5CAC6CAC7CAC8CAC9CACACAB1
:100BC0009DCEA3CECBCED1CEF9CEFFCE27CF2DCF8B
:100BD00055CF7BCFA1CFA7CF37CD5ACD7DCDA0CDDF
:100BE000C3CDE6CD09CE2CCE0195007E001E0000BF
:100BF0005004A008000D5011B0150019501EB0226D
:100C0000F026A02BB02F00336037B03B103F2045BB
:100C1000B049904EE0524057905BF05F4064A0684E
:100C2000F06C5071A075007A507EB082A086D08A98
:100C3000308F8093E097309C90A0E0A440A990ADC5
:100C4000F0B140B690BAF0BE40C3A0C7F0CB50D0D0
:100C5000A0D400D950DDB0E100E660EAB0EE10F3B8
:100C600060F7B0FB00000000000000000000000082
:100C70000000000000000000000000000000000074
:100C80000000000000000000000000000000000064
:100C90000000000000000000000000000000000054
:040CA0000000000050
:00000001FF
