:100000002DC047C046C045C044C043C05CC141C0CC
:1000100040C03FC03EC0D5C33CC03BC03AC039C061
:1000200038C037C036C00BC10CC10DC10EC10FC1E5
:1000300010C111C112C11BC11CC11DC11EC11FC1F4
:1000400020C121C122C165C368C37BC36AC36EC31B
:1000500078C373C35EC361C35CC35FC311241FBE97
:10006000CFE5D4E0DEBFCDBF10E0A0E6B0E0EAE629
:10007000FBE002C005900D92AC37B107D9F720E044
:10008000ACE7B0E001C01D92AC39B207E1F771D125
:100090006AC5B6CFF90111B89CE090B994E996BF52
:1000A00094EA96BF06B607FEFDCF91B1987F9830CF
:1000B00021F084E986BF80E0089583B994E896BF73
:1000C00006B607FEFDCF91B1987F983121F084E903
:1000D00086BF80E0089563B994E896BF06B607FE30
:1000E000FDCF91B1987F983221F084E986BF80E0FE
:1000F000089594EE96BF06B607FEFDCF91B1987FA6
:10010000903121F084E986BF80E00895816083B951
:1001100084E886BF06B607FEFDCF81B1887F8034B4
:1001200041F4642F70E061507109161617062CF027
:1001300023C084E986BF80E0089580E090E040E03D
:1001400054EC56BF06B607FEFDCF31B1387F3035CF
:1001500021F084E986BF80E0089523B1DF01A80F74
:10016000B91F2C9384E100008150E9F74F5F842F81
:1001700090E0861797072CF384E886BF06B607FE43
:10018000FDCF83B1E60FF71F808384E986BF81E04E
:10019000089511B89CE090B994E996BF94EA96BF8F
:1001A00006B607FEFDCF91B1987F983021F084E923
:1001B00086BF80E0089583B984E886BF06B607FE4F
:1001C000FDCF81B1887F883121F084E986BF80E04E
:1001D000089563B984E886BF06B607FEFDCF81B1F6
:1001E000887F883219F4411105C01DC084E986BF9B
:1001F00080E00895F9014150842F90E00196280F86
:10020000391F94E8819183B996BF06B607FEFDCFEA
:1002100081B1887F883221F084E986BF80E008952B
:10022000E217F30779F784E986BF81E0089590E04B
:100230008830910598F4FC01ED5EFF4F0994C09859
:100240000895919808959298089593980895949890
:10025000089595980895969808959798089590E030
:100260008830910598F4FC01E55EFF4F0994C09A2F
:100270000895919A0895929A0895939A0895949A58
:100280000895959A0895969A0895979A089589E001
:1002900080936A0088E0EBE6F0E0A3E7B0E001902D
:1002A0000D928A95E1F7E199FECF69E080E091E057
:1002B000F3D3E199FECF48E050E061E071E083E7DD
:1002C00090E0E1D308951F920F920FB60F92112480
:1002D0002F933F934F935F936F937F938F939F934E
:1002E000AF93BF93EF93FF931EBC88B7806188BF25
:1002F000E0916600F091670081E00995E091660069
:10030000F091670082E00995E0916600F091670046
:1003100083E00995E0916600F091670084E009951B
:10032000E0916600F091670085E00995E091660034
:10033000F091670087E00995E0916600F091670011
:1003400086E00995FF91EF91BF91AF919F918F91B9
:100350007F916F915F914F913F912F910F900FBEC1
:100360000F901F901895813011F4A09A0895A098CD
:100370000895CF93DF93CDB7DEB767970FB6F894A4
:10038000DEBF0FBECDBF8FE084BB81E087BB8EEFA9
:1003900081BB82B38E6F82BBC09A81E0E4DF2FEF16
:1003A00085EA9EE0215080409040E1F700C00000C7
:1003B00080E0D9DFE199FECF87E090E05CD38A3A14
:1003C00009F4A19887E485BD8DE983BD80E98AB9E8
:1003D00086E080BD10BC8FE189B9E199FECF80E055
:1003E00091E049D380936A00E199FECF48E050E064
:1003F00061E071E083E790E02ED3E199FECF809138
:1004000073008F3F09F443DF8CE085BB84B38C60BD
:1004100084BBB1D28093850094D293D2C19AB9980B
:10042000AFEFB1EEE4E0A150B040E040E1F700C032
:100430000000B19B0DC087E191E09093690080932B
:1004400068008FE291E090936700809366000CC093
:100450008FE291E0909369008093680087E191E0DA
:100460009093670080936600E0916600F0916700CA
:1004700081E00995E0916600F091670082E00995BE
:10048000E0916600F091670083E00995E0916600D5
:10049000F091670084E00995E0916600F0916700B3
:1004A00085E00995E0916600F091670087E0099585
:1004B000E0916600F091670086E00995FFEF29E67C
:1004C00088E1F15020408040E1F700C00000FE01CB
:1004D000319687E1DF011D928A95E9F781E88B83E8
:1004E00082E88E8383E8898784E88C8785E88F8714
:1004F00086E88A8B87EA8D8B1092860078940F2E7F
:10050000FBEABF2EF02D07E810E00F2EEE24EA9450
:10051000FFE0FF2EF02D6894992491F80F2ECC2443
:10052000CA94FFE3DF2EF02DAA24A39490919B00A0
:100530009B9D812D112486958695282F220F820F51
:10054000880F981B953019F4A0926500CEC09111C8
:10055000CCC080916500882309F4F3C06DD29595D5
:100560008795959587958130B0E19B072CF4909302
:1005700084008093830005C0906E909384008093E4
:1005800083002091810030918200809183009091BE
:100590008400820F931F90938200809381008115C5
:1005A000E0E49E072CF0D0928200C092810006C049
:1005B000992324F41092820010928100809181008E
:1005C00090918200880F991F880F991F9C01207FAE
:1005D0003327322F2227892F9927822B932B988715
:1005E0008F8320919A00322F3F703E9DC0013F9D26
:1005F000900D11249093840080938300AC01407F80
:100600005527542F4427892F9927842B952B9F8B6F
:100610008E8B237009F054C0D80116968D919C9151
:1006200017979B878A8718968D919C9119979E871B
:100630008D8702D295958795959587958130B0E104
:100640009B072CF4909384008093830005C0906EE8
:10065000909384008093830020917F0030918000EC
:100660008091830090918400820F931F909380006B
:1006700080937F008115E0E49E072CF0D0928000EB
:10068000C0927F0006C0992324F41092800010923B
:100690007F0080917F0090918000880F991F880FC4
:1006A000991F90938400809383009C01207F3327BF
:1006B000322F2227892F9927822B932B998B888B76
:1006C00080919A008F7039F4D8011C968D919C917D
:1006D0001D979C8B8B8B80916400823019F0CE012A
:1006E00001965CD1109265002CC080917E00E1E003
:1006F000E80FE0937E00EA3018F010927E0009C007
:100700008E2F90E08B309105E0F4FC01ED5DFF4F02
:10071000099492D19A83898314C08ED19D838C834E
:1007200010C08AD1F801978386830BC085D1D80188
:1007300019969C938E93189704C07ED1F8019587E3
:10074000848780916400843019F480E00CDE09C055
:10075000833019F49092640002C0823011F48A2D23
:1007600002DE08B607FEE2CE14BC88B7806888BFF8
:1007700083B3827090917D00891719F080937D007A
:10078000D5CE90917C00891709F4D0CE811104C098
:1007900094E09093640003C093E09093640080938E
:1007A0007C00C4CE1DBC1CBC1FBC95E09EBD90E06F
:1007B0009BBD8ABD88B7806188BF89B7806189BFCA
:1007C00008951F920F920FB60F9211242F933F930B
:1007D0004F935F936F937F938F939F93AF93BF9349
:1007E000CF93EF93FF93CCB1CC230CF098C0CA3FCA
:1007F00091F481E08093980010929B0010929A00EF
:100800001092990010929700E0916800F0916900B1
:1008100080E0099517C0CC3F49F410929800E09110
:100820006600F091670080E0099579C0CB3F51F4F4
:1008300081E080939800E0916800F091690080E089
:1008400009956DC0C83F09F06AC080919800813059
:1008500009F065C080919B008F5F80939B00E091C1
:100860006800F091690081E0099580919B008130DA
:1008700009F04DC0E0916800F091690082E00995AF
:1008800080919A008F5F80939A00909199009F5F6A
:10089000909399008370813001F5809197008F5F6C
:1008A00080939700E0916800F091690084E00995D9
:1008B0008091970080FD06C0E0916800F09169008A
:1008C00085E00995809197008370813031F4E09143
:1008D0006800F091690086E0099580919900813067
:1008E00031F4E0916800F091690087E0099580910A
:1008F0009900833010F01092990080919A0080FF47
:1009000006C0E0916800F091690083E0099580914C
:100910009B00863010F010929B008EE443DFFF9125
:10092000EF91CF91BF91AF919F918F917F916F91F7
:100930005F914F913F912F910F900FBE0F901F909D
:100940001895CF93DF9300D0CDB7DEB71A82198206
:100950009E012F5F3F4F42E065E280E21ADC9E017C
:100960002F5F3F4F42E062EC80E213DC0F900F906C
:10097000DF91CF910895CF93DF9300D0CDB7DEB74D
:100980001A8219829E012F5F3F4F42E060E080E2B1
:1009900081DB0F900F90DF91CF9108959C0147E18B
:1009A00060E880E2F6DB08958F929F92AF92BF924B
:1009B000CF92DF92EF92FF92CF93DF93EC016881A9
:1009C00079818A819B81611571058105910521F4E9
:1009D00064E279ED8BE597E02DE133EF41E050E003
:1009E00068D049015A019B01AC01A7EAB1E47DD06E
:1009F0006B017C01ACEEB4EFA501940182D0DC0167
:100A0000CB018C0D9D1DAE1DBF1DB7FF03C001970F
:100A1000A109B04888839983AA83BB839F77DF911C
:100A2000CF91FF90EF90DF90CF90BF90AF909F90CD
:100A30008F900895B9DF089580E690E0B5DF0895BE
:100A4000A0E0B0E08093600090936100A09362000A
:100A5000B09363000895DC01CB01FC01E199FECF66
:100A600006C0FFBBEEBBE09A31960DB20D9241502D
:100A70005040B8F70895E199FECF9FBB8EBBE09A36
:100A800099278DB30895DC01CB0102C02D9105D0CB
:100A900041505040D8F70895262FE199FECF9FBBD3
:100AA0008EBB2DBB0FB6F894E29AE19A0FBE019669
:100AB0000895052E97FB16F400940FD057FD05D02E
:100AC00024D007FC02D046F408C0509540953095DC
:100AD00021953F4F4F4F5F4F0895909580957095AA
:100AE00061957F4F8F4F9F4F089531D0A59F900DF7
:100AF000B49F900DA49F800D911D11240895B7FF00
:100B0000F4CFF3DF821B930B0895A1E21A2EAA1BE8
:100B1000BB1BFD010DC0AA1FBB1FEE1FFF1FA217AD
:100B2000B307E407F50720F0A21BB30BE40BF50BAA
:100B3000661F771F881F991F1A9469F76095709533
:100B4000809590959B01AC01BD01CF010895A29FB6
:100B5000B001B39FC001A39F01D0B29F700D811D52
:100B60001124911D0895F894FFCF010000000101A8
:100B70002F011701093C3D3E3F404142433C3D3E71
:100B80003F40414243000000000000000000000020
:100B90000000000000000000000000000000000055
:100BA0000000000000000000000000000000000045
:100BB0000000000000000000000000000000000035
:060BC0000000000000002F
:00000001FF
