:1000000012C02CC02BC02AC029C028C027C026C0BF
:1000100025C024C023C018C121C020C01FC01EC0DD
:100020001DC01CC01BC011241FBECFE5D4E0DEBF25
:10003000CDBF11E0A0E6B0E0E2E2F7E002C005903B
:100040000D92A237B107D9F721E0A2E7B1E001C0D4
:100050001D92A038B207E1F70BD261C3D1CFF901ED
:1000600011B89CE090B994E996BF94EA96BF06B6A1
:1000700007FEFDCF91B1987F983021F084E986BFCB
:1000800080E0089583B994E896BF06B607FEFDCFD9
:1000900091B1987F983121F084E986BF80E008957E
:1000A00063B994E896BF06B607FEFDCF91B1987F7D
:1000B000983221F084E986BF80E0089594EE96BFDF
:1000C00006B607FEFDCF91B1987F903121F084E90B
:1000D00086BF80E00895816083B984E886BF06B654
:1000E00007FEFDCF81B1887F803441F4642F70E03A
:1000F00061507109161617062CF023C084E986BFDB
:1001000080E0089580E090E040E054EC56BF06B6F1
:1001100007FEFDCF31B1387F303521F084E986BF4D
:1001200080E0089523B1DF01A80FB91F2C9384E16B
:1001300000008150E9F74F5F842F90E08617970702
:100140002CF384E886BF06B607FEFDCF83B1E60F29
:10015000F71F808384E986BF81E0089511B89CE091
:1001600090B994E996BF94EA96BF06B607FEFDCF14
:1001700091B1987F983021F084E986BF80E008959E
:1001800083B984E886BF06B607FEFDCF81B1887FBC
:10019000883121F084E986BF80E0089563B984E85E
:1001A00086BF06B607FEFDCF81B1887F883219F47D
:1001B000411105C01DC084E986BF80E00895F901A2
:1001C0004150842F90E00196280F391F94E88191C7
:1001D00083B996BF06B607FEFDCF81B1887F88320E
:1001E00021F084E986BF80E00895E217F30779F7EC
:1001F00084E986BF81E0089589E08093610088E00A
:10020000E2E6F0E0AAE6B0E001900D928A95E1F70F
:10021000E199FECF69E080E091E074D2E199FECFF0
:1002200048E050E061E071E08AE690E062D2089533
:100230006F77E62FF0E0EE0FFF1FEE58FF4F608163
:1002400071818F7028D208951F920F920FB60F926E
:100250001124AF92BF92DF92EF92FF920F931F9300
:100260002F933F934F935F936F937F938F939F93BE
:10027000AF93BF93CF93DF93EF93FF938CB188231A
:1002800074F4982F907E903809F0D2C080937D014D
:1002900081E080937C0182E080937B01C9C09091D2
:1002A0007B01992309F4C4C020917C01E22FF0E086
:1002B000E358FE4F808381E0820F80937C01915050
:1002C00090937B01833009F0B3C010927C01809140
:1002D0007A01882309F48EC0E0917901E83008F0B2
:1002E000A7C080917D01982F907F903909F0A0C020
:1002F0008F7090916100891709F477C0E11128C0CF
:100300008093610080917F01882309F491C089C0A6
:10031000AE2FB0E0A659BF4F80917E018C93E111C2
:1003200002C0C0980BC022B381E090E002C0880FE9
:10033000991FEA95E2F78095822382BB809179012B
:100340008F5F80937901883018F010927A0152C043
:1003500080917D01282F2F7090916100291368C032
:1003600090917A01911164C020917E0190916A0070
:10037000291349C08079803941F460917F01662357
:1003800021F080E055DFC0983EC0C09A3CC08C2F61
:10039000DC2EF80191918F01F7012181291320C0F2
:1003A00090819079903999F46281662381F09091DF
:1003B000780191113DDF92B3950102C0220F331FE6
:1003C000DA94E2F7822F8095892382BB09C022B399
:1003D000C50102C0880F991FDA94E2F7822B82BB15
:1003E0002196C830D10599F623C080917F018111F3
:1003F0008FCF1EC080917D01282F2F7090916100BA
:10040000291316C0B1CF0BE610E0C1E0D0E00F2EEB
:10041000FDE7EF2EF1E0FF2EF02DAA24A394B12CDE
:10042000B6CFF0E0E659FF4F80917E01808379CF0F
:10043000FF91EF91DF91CF91BF91AF919F918F91FC
:100440007F916F915F914F913F912F911F910F91EC
:10045000FF90EF90DF90BF90AF900F900FBE0F9086
:100460001F901895813011F4A09A0895A0980895CE
:100470008FE084BB81E087BB8EEF81BB82B38E6F40
:1004800082BBC09A81E0EEDF2FEF83ED90E3215035
:1004900080409040E1F700C0000080E0E3DFE19998
:1004A000FECF87E090E01DD18A3A09F4A19887E455
:1004B00085BD8DE983BD80E98AB986E080BD10BC29
:1004C0008FE189B9E199FECF80E091E00AD1809374
:1004D0006100E199FECF48E050E061E071E08AE61A
:1004E00090E0EFD0E199FECF80916A008F3F09F450
:1004F00083DE8CE085BB84B38C6084BBB9D08093F1
:1005000078019CD09BD0C0E060E48C2F91DECF5F5F
:10051000C830D1F780E0A6DF10927A01789405E523
:100520001AEAD2E00F2EF3E0EF2EF02D6894FF24AC
:10053000F2F880916000843039F4109277011092C3
:100540007601109275014EC0833071F4D093600033
:100550008091750181110AC0109277011092760185
:1005600081E08093750106C08230E1F580917501CC
:100570008130C1F58091760190917701449790F197
:10058000109277011092760110927501809174019A
:10059000811115C081E08093740180E063DFC09811
:1005A00012BBC0E0C0FF04C060E48C2F41DE03C07A
:1005B00060E28C2F3DDECF5FC830A1F713C01092F0
:1005C000740181E04FDFC09A02BBC0E0C0FF04C0ED
:1005D00060E08C2F2DDE03C06FE78C2F29DECF5F0C
:1005E000C830A1F708B607FEA4CF14BC88B780684E
:1005F00088BF83B3827090917301891719F080933B
:1006000073010DC090917201891749F0811103C0E7
:10061000F092600002C0E0926000809372018091CD
:100620007501813009F085CF809176019091770135
:10063000019690937701809376017BCFCF93DF93E0
:1006400000D0CDB7DEB71A8219829E012F5F3F4FCF
:1006500042E065E280E282DD9E012F5F3F4F42E093
:1006600062EC80E27BDD0F900F90DF91CF910895D7
:10067000CF93DF9300D0CDB7DEB71A8219829E01E7
:100680002F5F3F4F42E060E080E2E9DC0F900F9087
:10069000DF91CF910895CF93DF9300D0CDB7DEB730
:1006A0007983607F6A838F70682F606B9E012F5FF4
:1006B0003F4F42E080E252DD0F900F90DF91CF91EB
:1006C0000895DC01CB01FC01E199FECF06C0FFBB20
:1006D000EEBBE09A31960DB20D9241505040B8F702
:1006E0000895E199FECF9FBB8EBBE09A99278DB309
:1006F0000895DC01CB0102C02D9105D0415050403E
:10070000D8F70895262FE199FECF9FBB8EBB2DBB56
:100710000FB6F894E29AE19A0FBE01960895F89404
:10072000FFCF01093C3D3E3F404142433C3D3E3FFF
:100730004041424300000002000410061008100A65
:10074000100C200E20102012201430163018301AF1
:10075000301C401E40204022402450265028502A61
:10076000502C602E60306032603470367038703AD1
:10077000703C803E80408042804490469048904A41
:10078000904CA04EA050A052A054A056B058B05AC1
:10079000B05CB05EC060C062C064C066D068D06A41
:1007A000D06CD06EE070E072E074E076F078F07AB1
:1007B000F07CF07E00810083008500871089108B1B
:1007C000108D108F20912093209520973099309B89
:1007D000309D309F40A140A340A540A750A950ABF9
:1007E00050AD50AF50B160B360B560B760B970BB89
:1007F00070BD70BF70C180C380C580C780C990CBF9
:1008000090CD90CF90D1A0D3A0D5A0D7A0D9B0DB68
:10081000B0DDB0DFB0E1C0E3C0E5C0E7C0E9D0EBD8
:10082000D0EDD0EFD0F1E0F3E0F5E0F7E0F9F0FB48
:10083000F0FDF000000000000000000000000000DB
:1008400000000000000000000000000000000000A8
:100850000000000000000000000000000000000098
:100860000000000000000000000000000000000088
:0308700000000085
:00000001FF
