:1000000022C03CC03BC03AC039C038C037C036C03F
:1000100035C034C033C062C131C030C02FC02EC023
:100020002DC02CC02BC000C101C102C103C104C13D
:1000300005C106C107C110C111C112C113C114C14C
:1000400015C116C117C111241FBECFE5D4E0DEBF14
:10005000CDBF11E0A0E6B0E0E0E8FAE002C0059014
:100060000D92A838B107D9F721E0A8E8B1E001C0A6
:100070001D92A839B207E1F781D300C5C1CFF901BC
:1000800011B89CE090B994E996BF94EA96BF06B681
:1000900007FEFDCF91B1987F983021F084E986BFAB
:1000A00080E0089583B994E896BF06B607FEFDCFB9
:1000B00091B1987F983121F084E986BF80E008955E
:1000C00063B994E896BF06B607FEFDCF91B1987F5D
:1000D000983221F084E986BF80E0089594EE96BFBF
:1000E00006B607FEFDCF91B1987F903121F084E9EB
:1000F00086BF80E00895816083B984E886BF06B634
:1001000007FEFDCF81B1887F803441F4642F70E019
:1001100061507109161617062CF023C084E986BFBA
:1001200080E0089580E090E040E054EC56BF06B6D1
:1001300007FEFDCF31B1387F303521F084E986BF2D
:1001400080E0089523B1DF01A80FB91F2C9384E14B
:1001500000008150E9F74F5F842F90E086179707E2
:100160002CF384E886BF06B607FEFDCF83B1E60F09
:10017000F71F808384E986BF81E0089511B89CE071
:1001800090B994E996BF94EA96BF06B607FEFDCFF4
:1001900091B1987F983021F084E986BF80E008957E
:1001A00083B984E886BF06B607FEFDCF81B1887F9C
:1001B000883121F084E986BF80E0089563B984E83E
:1001C00086BF06B607FEFDCF81B1887F883219F45D
:1001D000411105C01DC084E986BF80E00895F90182
:1001E0004150842F90E00196280F391F94E88191A7
:1001F00083B996BF06B607FEFDCF81B1887F8832EE
:1002000021F084E986BF80E00895E217F30779F7CB
:1002100084E986BF81E0089590E08830910598F4E4
:10022000FC01ED5EFF4F0994C098089591980895E0
:10023000929808959398089594980895959808959C
:10024000969808959798089590E08830910598F4CD
:10025000FC01E55EFF4F0994C09A0895919A0895B4
:10026000929A0895939A0895949A0895959A089564
:10027000969A0895979A089589E08093670081E09F
:100280008093660088E0E8E6F0E0A8E7B0E001903F
:100290000D928A95E1F7E199FECF69E080E091E067
:1002A000E0D3E199FECF48E050E061E071E088E7FB
:1002B00090E0CED3E199FECF6091660082E191E0BB
:1002C000D0D308956F77E62FF0E0EE0FFF1FE857C9
:1002D000FF4F608171818F708DD308951F920F92AF
:1002E0000FB60F921124EF92FF920F931F932F934B
:1002F0003F934F935F936F937F938F939F93AF93AE
:10030000BF93CF93DF93EF93FF938CB1882304F5D2
:10031000982F987F983F11F010929301982F907E1C
:10032000903841F48093950191E09093940192E08C
:1003300090939301982F907F903B09F0B3C08093E6
:10034000950181E08093940182E080939301AAC09B
:1003500090919301992309F4A5C090919401E92FFC
:10036000F0E0EB56FE4F80839F5F933019F090933F
:10037000940198C081E08093940180919201882338
:1003800009F487C080919101803108F08BC0909171
:100390009501292F207F203909F084C09F7020917A
:1003A0006700921709F470C081117CC090936700B8
:1003B0006BC0E82FF0E0E858FF4FC5E9D1E0998124
:1003C0009083E0916400F0916500877009958091B9
:1003D00091018F5F809391018881282F2F709091D8
:1003E000670029135FC09091920191115BC0807EDC
:1003F000803809F057C008E710E0C0E00F2EF5E99B
:10040000EF2EF1E0FF2EF02DF80181918F01F70121
:100410009181981314C080818079803951F4828150
:10042000882339F0E0916400F09165008C2F0995E4
:1004300006C0E0916200F09163008C2F0995CF5FB8
:10044000C83011F700E810E00F2EF5E9EF2EF1E0CB
:10045000FF2EF02DF80181918F01F7019181981302
:100460000FC080818079803939F46281662321F060
:100470008C2F877027DF04C060E08C2F877022DF0D
:10048000CF5FC03139F70EC090919701992351F099
:1004900090CF80919501282F2F7090916700291798
:1004A00009F4A5CFFF91EF91DF91CF91BF91AF916B
:1004B0009F918F917F916F915F914F913F912F917C
:1004C0001F910F91FF90EF900F900FBE0F901F9014
:1004D0001895813011F4A09A0895811102C0A09856
:1004E0000895823021F494B381E0892784BB089574
:1004F0000F931F93CF93DF9381E08093920110922B
:100500009101E0916200F091630080E00995E09133
:100510006200F091630081E00995E0916200F09142
:10052000630082E00995E0916200F091630083E04E
:100530000995E0916200F091630084E00995E091F3
:100540006200F091630085E00995E0916200F0910E
:10055000630086E00995E0916200F091630087E016
:10056000099581E0B6DF11E0D1E008E0AFC0883046
:1005700081F5E0916200F091630080E00995E091DF
:100580006200F091630081E00995E0916200F091D2
:10059000630082E00995E0916200F091630083E0DE
:1005A0000995E0916200F091630084E00995E09183
:1005B0006200F091630085E00995E0916200F0919E
:1005C000630086E00995E0916200F091630087E0A6
:1005D0000995809160008430B9F410928F011092D7
:1005E0008E0110928D0181E0809360001111BFC0D7
:1005F00080916600813021F482E080936600B7C06C
:1006000081E080936600B3C0833079F482E0809308
:10061000600080918D0181110CC010928F011092A9
:100620008E0181E080938D0108C08091600082304E
:1006300099F480918D01813079F480918E019091AF
:100640008F01883C910540F010928F0110928E012D
:1006500010928D010093910108B607FE37C014BCBB
:1006600088B7806888BFC3B3C270C0938A01DF5F58
:100670008D2F8F7041F480916600813011F429DF55
:1006800002C082E026DF80918901C81719F0C0936B
:1006900089010FC080918801C81759F0C11104C0A9
:1006A00084E08093600003C083E080936000C09387
:1006B000880180918D01813049F480918E01909163
:1006C0008F01019690938F0180938E01809191010B
:1006D000803108F44CCF1092920180E0FADEE1996B
:1006E000FECF6091670080E091E0BBD1E199FECF41
:1006F0006091660082E191E0B4D1E199FECF40E1E2
:1007000050E061E071E088E790E0A2D1E091620002
:10071000F091630080E00995E0916200F091630040
:1007200081E00995E0916200F091630082E0099513
:10073000E0916200F091630083E00995E09162002E
:10074000F091630084E00995E0916200F09163000C
:1007500085E00995E0916200F091630086E00995DB
:10076000E0916200F091630087E0099502C010E01B
:1007700073CFDF91CF911F910F9108958FE084BBCC
:1007800081E087BB8EEF81BB82B38E6F82BBC09A44
:1007900081E09FDE2FEF85EA9EE02150804090406F
:1007A000E1F700C0000080E094DEE199FECF87E031
:1007B00090E046D18A3A09F4A19887E485BD8DE995
:1007C00083BD80E98AB986E080BD10BC8FE189B91C
:1007D000E199FECF80E091E033D180936700E19909
:1007E000FECF40E150E061E071E088E790E018D191
:1007F000E199FECF82E191E023D180936600E199F7
:10080000FECF809178008F3F09F436DD8CE085BB08
:1008100084B38C6084BBDBD080939001BED0BDD00C
:10082000C19AB9982FEF81EE94E02150804090401A
:10083000E1F700C00000B19B0DC08CE091E0909307
:1008400065008093640084E291E09093630080935C
:1008500062000CC084E291E0909365008093640094
:100860008CE091E09093630080936200E0916200DD
:10087000F091630080E00995E0916200F0916300DF
:1008800081E00995E0916200F091630082E00995B2
:10089000E0916200F091630083E00995E0916200CD
:1008A000F091630084E00995E0916200F0916300AB
:1008B00085E00995E0916200F091630086E009957A
:1008C000E0916200F091630087E009951092920137
:1008D0007894C1E0D2E003E014E0809161008430BC
:1008E00049F410928F0110928E0110928D01C093E5
:1008F000610027C0833069F4D093610080918D013D
:1009000081110BC010928F0110928E01C0938D0146
:1009100008C0809161008230A1F480918D01813006
:1009200081F480918E0190918F01883C910548F06F
:1009300010928F0110928E0110928D01C093610070
:10094000D7DD08B607FEC9CF14BC88B7806888BF5A
:1009500083B3827090918C01891719F080938C0178
:100960000DC090918B01891749F0811103C010933C
:10097000610002C00093610080938B0180918D0122
:10098000813009F0AACF80918E0190918F0101965C
:1009900090938F0180938E01A0CFCF93DF9300D0EF
:1009A000CDB7DEB71A8219829E012F5F3F4F42E01A
:1009B00067E280E2E3DB9E012F5F3F4F42E062ECA3
:1009C00080E2DCDB0F900F90DF91CF910895CF9301
:1009D000DF9300D0CDB7DEB71A8219829E012F5F58
:1009E0003F4F42E060E080E24ADB0F900F90DF91E2
:1009F000CF910895CF93DF9300D0CDB7DEB7798341
:100A0000607F6A838F70682F606B9E012F5F3F4FFE
:100A100042E080E2B3DB0F900F90DF91CF91089519
:100A2000DC01CB01FC01E199FECF06C0FFBBEEBBB0
:100A3000E09A31960DB20D9241505040B8F70895AA
:100A4000E199FECF9FBB8EBBE09A99278DB30895A5
:100A5000DC01CB0102C02D9105D041505040D8F7A8
:100A60000895262FE199FECF9FBB8EBB2DBB0FB6FD
:100A7000F894E29AE19A0FBE01960895F894FFCF98
:100A8000010124010C0101093C3D3E3F404142432C
:100A90004445464748494A4B3C3D3E3F404142431E
:100AA0004445464748494A4B0000000200041006EE
:100AB0001008100A100C200E2010201220143016DE
:100AC0003018301A301C401E40204022402450264E
:100AD0005028502A502C602E6030603260347036BE
:100AE0007038703A703C803E80408042804490462E
:100AF0009048904A904CA04EA050A052A054A056AE
:100B0000B058B05AB05CB05EC060C062C064C0662D
:100B1000D068D06AD06CD06EE070E072E074E0769D
:100B2000F078F07AF07CF07E008100830085008709
:100B30001089108B108D108F209120932095209775
:100B40003099309B309D309F40A140A340A540A7E5
:100B500050A950AB50AD50AF50B160B360B560B765
:100B600060B970BB70BD70BF70C180C380C580C7E5
:100B700080C990CB90CD90CF90D1A0D3A0D5A0D755
:100B8000A0D9B0DBB0DDB0DFB0E1C0E3C0E5C0E7C5
:100B9000C0E9D0EBD0EDD0EFD0F1E0F3E0F5E0F735
:080BA000E0F9F0FBF0FDF0FEAE
:00000001FF
